{
  "address": "0xAC69ffE1e9F67faA34429595AF2e7E7f1d491937",
  "abi": [
    {
      "inputs": [
        {
          "internalType": "uint256",
          "name": "_lockTime",
          "type": "uint256"
        },
        {
          "internalType": "address",
          "name": "dataFeedAddr",
          "type": "address"
        }
      ],
      "stateMutability": "nonpayable",
      "type": "constructor"
    },
    {
      "inputs": [],
      "name": "dataFeed",
      "outputs": [
        {
          "internalType": "contract AggregatorV3Interface",
          "name": "",
          "type": "address"
        }
      ],
      "stateMutability": "view",
      "type": "function"
    },
    {
      "inputs": [],
      "name": "fund",
      "outputs": [],
      "stateMutability": "payable",
      "type": "function"
    },
    {
      "inputs": [
        {
          "internalType": "address",
          "name": "",
          "type": "address"
        }
      ],
      "name": "funderToAmount",
      "outputs": [
        {
          "internalType": "uint256",
          "name": "",
          "type": "uint256"
        }
      ],
      "stateMutability": "view",
      "type": "function"
    },
    {
      "inputs": [],
      "name": "getChainlinkDataFeedLatestAnswer",
      "outputs": [
        {
          "internalType": "int256",
          "name": "",
          "type": "int256"
        }
      ],
      "stateMutability": "view",
      "type": "function"
    },
    {
      "inputs": [],
      "name": "getFund",
      "outputs": [],
      "stateMutability": "nonpayable",
      "type": "function"
    },
    {
      "inputs": [],
      "name": "getFundSuccess",
      "outputs": [
        {
          "internalType": "bool",
          "name": "",
          "type": "bool"
        }
      ],
      "stateMutability": "view",
      "type": "function"
    },
    {
      "inputs": [],
      "name": "owner",
      "outputs": [
        {
          "internalType": "address",
          "name": "",
          "type": "address"
        }
      ],
      "stateMutability": "view",
      "type": "function"
    },
    {
      "inputs": [],
      "name": "refund",
      "outputs": [],
      "stateMutability": "nonpayable",
      "type": "function"
    },
    {
      "inputs": [
        {
          "internalType": "address",
          "name": "_erc20Addr",
          "type": "address"
        }
      ],
      "name": "setErc20Addr",
      "outputs": [],
      "stateMutability": "nonpayable",
      "type": "function"
    },
    {
      "inputs": [
        {
          "internalType": "address",
          "name": "funder",
          "type": "address"
        },
        {
          "internalType": "uint256",
          "name": "amountToUpdate",
          "type": "uint256"
        }
      ],
      "name": "setFunderToAmount",
      "outputs": [],
      "stateMutability": "nonpayable",
      "type": "function"
    },
    {
      "inputs": [
        {
          "internalType": "address",
          "name": "newOwner",
          "type": "address"
        }
      ],
      "name": "transferOwnerShip",
      "outputs": [],
      "stateMutability": "nonpayable",
      "type": "function"
    }
  ],
  "transactionHash": "0xe344c60b54740964a8e35c4ed491b6fdcc18005b78f5172986d545b0cb957498",
  "args": [
    300,
    "0x694AA1769357215DE4FAC081bf1f309aDC325306"
  ],
  "numDeployments": 1,
  "solcInputHash": "22f5a251178b451751c9fffad368b954",
  "bytecode": "0x60806040526000600560146101000a81548160ff02191690831515021790555034801561002b57600080fd5b50604051611691380380611691833981810160405281019061004d919061017d565b80600260006101000a81548173ffffffffffffffffffffffffffffffffffffffff021916908373ffffffffffffffffffffffffffffffffffffffff16021790555033600160006101000a81548173ffffffffffffffffffffffffffffffffffffffff021916908373ffffffffffffffffffffffffffffffffffffffff160217905550426003819055508160048190555050506101bd565b600080fd5b6000819050919050565b6100fc816100e9565b811461010757600080fd5b50565b600081519050610119816100f3565b92915050565b600073ffffffffffffffffffffffffffffffffffffffff82169050919050565b600061014a8261011f565b9050919050565b61015a8161013f565b811461016557600080fd5b50565b60008151905061017781610151565b92915050565b60008060408385031215610194576101936100e4565b5b60006101a28582860161010a565b92505060206101b385828601610168565b9150509250929050565b6114c5806101cc6000396000f3fe60806040526004361061009c5760003560e01c80638edd6eb6116100645780638edd6eb6146101725780639e42ff9014610189578063b60d4288146101b4578063bea4dfb5146101be578063d39cf006146101e9578063da4658e0146102125761009c565b806313ffff01146100a15780634407e1e8146100ca578063590e1ae3146101075780638863dd1a1461011e5780638da5cb5b14610147575b600080fd5b3480156100ad57600080fd5b506100c860048036038101906100c39190610c42565b61023d565b005b3480156100d657600080fd5b506100f160048036038101906100ec9190610c42565b610311565b6040516100fe9190610c88565b60405180910390f35b34801561011357600080fd5b5061011c610329565b005b34801561012a57600080fd5b5061014560048036038101906101409190610c42565b6105c4565b005b34801561015357600080fd5b5061015c610698565b6040516101699190610cb2565b60405180910390f35b34801561017e57600080fd5b506101876106be565b005b34801561019557600080fd5b5061019e610903565b6040516101ab9190610d2c565b60405180910390f35b6101bc610929565b005b3480156101ca57600080fd5b506101d3610a24565b6040516101e09190610d60565b60405180910390f35b3480156101f557600080fd5b50610210600480360381019061020b9190610da7565b610ac5565b005b34801561021e57600080fd5b50610227610b9c565b6040516102349190610e02565b60405180910390f35b3373ffffffffffffffffffffffffffffffffffffffff16600160009054906101000a900473ffffffffffffffffffffffffffffffffffffffff1673ffffffffffffffffffffffffffffffffffffffff16146102cd576040517f08c379a00000000000000000000000000000000000000000000000000000000081526004016102c490610ea0565b60405180910390fd5b80600560006101000a81548173ffffffffffffffffffffffffffffffffffffffff021916908373ffffffffffffffffffffffffffffffffffffffff16021790555050565b60006020528060005260406000206000915090505481565b6003546004546103399190610eef565b42101561037b576040517f08c379a000000000000000000000000000000000000000000000000000000000815260040161037290610f6f565b60405180910390fd5b678ac7230489e8000061038d47610baf565b106103cd576040517f08c379a00000000000000000000000000000000000000000000000000000000081526004016103c490610fdb565b60405180910390fd5b60004711610410576040517f08c379a000000000000000000000000000000000000000000000000000000000815260040161040790611047565b60405180910390fd5b60008060003373ffffffffffffffffffffffffffffffffffffffff1673ffffffffffffffffffffffffffffffffffffffff1681526020019081526020016000205411610491576040517f08c379a000000000000000000000000000000000000000000000000000000000815260040161048890611047565b60405180910390fd5b60003373ffffffffffffffffffffffffffffffffffffffff166000803373ffffffffffffffffffffffffffffffffffffffff1673ffffffffffffffffffffffffffffffffffffffff168152602001908152602001600020546040516104f590611098565b60006040518083038185875af1925050503d8060008114610532576040519150601f19603f3d011682016040523d82523d6000602084013e610537565b606091505b5050809150508061057d576040517f08c379a0000000000000000000000000000000000000000000000000000000008152600401610574906110f9565b60405180910390fd5b60008060003373ffffffffffffffffffffffffffffffffffffffff1673ffffffffffffffffffffffffffffffffffffffff1681526020019081526020016000208190555050565b3373ffffffffffffffffffffffffffffffffffffffff16600160009054906101000a900473ffffffffffffffffffffffffffffffffffffffff1673ffffffffffffffffffffffffffffffffffffffff1614610654576040517f08c379a000000000000000000000000000000000000000000000000000000000815260040161064b90610ea0565b60405180910390fd5b80600160006101000a81548173ffffffffffffffffffffffffffffffffffffffff021916908373ffffffffffffffffffffffffffffffffffffffff16021790555050565b600160009054906101000a900473ffffffffffffffffffffffffffffffffffffffff1681565b6003546004546106ce9190610eef565b421015610710576040517f08c379a000000000000000000000000000000000000000000000000000000000815260040161070790610f6f565b60405180910390fd5b3373ffffffffffffffffffffffffffffffffffffffff16600160009054906101000a900473ffffffffffffffffffffffffffffffffffffffff1673ffffffffffffffffffffffffffffffffffffffff16146107a0576040517f08c379a000000000000000000000000000000000000000000000000000000000815260040161079790610ea0565b60405180910390fd5b678ac7230489e800006107b247610baf565b10156107f3576040517f08c379a00000000000000000000000000000000000000000000000000000000081526004016107ea90611165565b60405180910390fd5b60003373ffffffffffffffffffffffffffffffffffffffff164760405161081990611098565b60006040518083038185875af1925050503d8060008114610856576040519150601f19603f3d011682016040523d82523d6000602084013e61085b565b606091505b505080915050806108a1576040517f08c379a0000000000000000000000000000000000000000000000000000000008152600401610898906110f9565b60405180910390fd5b60008060003373ffffffffffffffffffffffffffffffffffffffff1673ffffffffffffffffffffffffffffffffffffffff168152602001908152602001600020819055506001600560146101000a81548160ff02191690831515021790555050565b600260009054906101000a900473ffffffffffffffffffffffffffffffffffffffff1681565b6729a2241af62c000061093b34610baf565b101561097c576040517f08c379a0000000000000000000000000000000000000000000000000000000008152600401610973906111d1565b60405180910390fd5b60035460045461098c9190610eef565b42106109cd576040517f08c379a00000000000000000000000000000000000000000000000000000000081526004016109c49061123d565b60405180910390fd5b346000803373ffffffffffffffffffffffffffffffffffffffff1673ffffffffffffffffffffffffffffffffffffffff1681526020019081526020016000206000828254610a1b9190610eef565b92505081905550565b600080600260009054906101000a900473ffffffffffffffffffffffffffffffffffffffff1673ffffffffffffffffffffffffffffffffffffffff1663feaf968c6040518163ffffffff1660e01b815260040160a060405180830381865afa158015610a94573d6000803e3d6000fd5b505050506040513d601f19601f82011682018060405250810190610ab891906112e0565b5050509150508091505090565b600560009054906101000a900473ffffffffffffffffffffffffffffffffffffffff1673ffffffffffffffffffffffffffffffffffffffff163373ffffffffffffffffffffffffffffffffffffffff1614610b55576040517f08c379a0000000000000000000000000000000000000000000000000000000008152600401610b4c906113cd565b60405180910390fd5b806000808473ffffffffffffffffffffffffffffffffffffffff1673ffffffffffffffffffffffffffffffffffffffff168152602001908152602001600020819055505050565b600560149054906101000a900460ff1681565b600080610bba610a24565b90506305f5e1008184610bcd91906113ed565b610bd7919061145e565b915050919050565b600080fd5b600073ffffffffffffffffffffffffffffffffffffffff82169050919050565b6000610c0f82610be4565b9050919050565b610c1f81610c04565b8114610c2a57600080fd5b50565b600081359050610c3c81610c16565b92915050565b600060208284031215610c5857610c57610bdf565b5b6000610c6684828501610c2d565b91505092915050565b6000819050919050565b610c8281610c6f565b82525050565b6000602082019050610c9d6000830184610c79565b92915050565b610cac81610c04565b82525050565b6000602082019050610cc76000830184610ca3565b92915050565b6000819050919050565b6000610cf2610ced610ce884610be4565b610ccd565b610be4565b9050919050565b6000610d0482610cd7565b9050919050565b6000610d1682610cf9565b9050919050565b610d2681610d0b565b82525050565b6000602082019050610d416000830184610d1d565b92915050565b6000819050919050565b610d5a81610d47565b82525050565b6000602082019050610d756000830184610d51565b92915050565b610d8481610c6f565b8114610d8f57600080fd5b50565b600081359050610da181610d7b565b92915050565b60008060408385031215610dbe57610dbd610bdf565b5b6000610dcc85828601610c2d565b9250506020610ddd85828601610d92565b9150509250929050565b60008115159050919050565b610dfc81610de7565b82525050565b6000602082019050610e176000830184610df3565b92915050565b600082825260208201905092915050565b7f546869732066756e6374696f6e2063616e206f6e6c792062652063616c6c656460008201527f206279206f776e65720000000000000000000000000000000000000000000000602082015250565b6000610e8a602983610e1d565b9150610e9582610e2e565b604082019050919050565b60006020820190508181036000830152610eb981610e7d565b9050919050565b7f4e487b7100000000000000000000000000000000000000000000000000000000600052601160045260246000fd5b6000610efa82610c6f565b9150610f0583610c6f565b9250828201905080821115610f1d57610f1c610ec0565b5b92915050565b7f77696e646f77206973206e6f7420636c6f736564000000000000000000000000600082015250565b6000610f59601483610e1d565b9150610f6482610f23565b602082019050919050565b60006020820190508181036000830152610f8881610f4c565b9050919050565b7f7461726765742069732072656163686564000000000000000000000000000000600082015250565b6000610fc5601183610e1d565b9150610fd082610f8f565b602082019050919050565b60006020820190508181036000830152610ff481610fb8565b9050919050565b7f4e6f20457468657220746f20726566756e640000000000000000000000000000600082015250565b6000611031601283610e1d565b915061103c82610ffb565b602082019050919050565b6000602082019050818103600083015261106081611024565b9050919050565b600081905092915050565b50565b6000611082600083611067565b915061108d82611072565b600082019050919050565b60006110a382611075565b9150819050919050565b7f5472616e736d697373696f6e206661696c656400000000000000000000000000600082015250565b60006110e3601383610e1d565b91506110ee826110ad565b602082019050919050565b60006020820190508181036000830152611112816110d6565b9050919050565b7f746172676574206973206e6f7420726561636865640000000000000000000000600082015250565b600061114f601583610e1d565b915061115a82611119565b602082019050919050565b6000602082019050818103600083015261117e81611142565b9050919050565b7f73656e64206d6f72652045544800000000000000000000000000000000000000600082015250565b60006111bb600d83610e1d565b91506111c682611185565b602082019050919050565b600060208201905081810360008301526111ea816111ae565b9050919050565b7f77696e646f7720697320636c6f73656400000000000000000000000000000000600082015250565b6000611227601083610e1d565b9150611232826111f1565b602082019050919050565b600060208201905081810360008301526112568161121a565b9050919050565b600069ffffffffffffffffffff82169050919050565b61127c8161125d565b811461128757600080fd5b50565b60008151905061129981611273565b92915050565b6112a881610d47565b81146112b357600080fd5b50565b6000815190506112c58161129f565b92915050565b6000815190506112da81610d7b565b92915050565b600080600080600060a086880312156112fc576112fb610bdf565b5b600061130a8882890161128a565b955050602061131b888289016112b6565b945050604061132c888289016112cb565b935050606061133d888289016112cb565b925050608061134e8882890161128a565b9150509295509295909350565b7f796f7520646f206e6f742068617665207065726d6973696f6e20746f2063616c60008201527f6c20746869732066756e6374696f6e0000000000000000000000000000000000602082015250565b60006113b7602f83610e1d565b91506113c28261135b565b604082019050919050565b600060208201905081810360008301526113e6816113aa565b9050919050565b60006113f882610c6f565b915061140383610c6f565b925082820261141181610c6f565b9150828204841483151761142857611427610ec0565b5b5092915050565b7f4e487b7100000000000000000000000000000000000000000000000000000000600052601260045260246000fd5b600061146982610c6f565b915061147483610c6f565b9250826114845761148361142f565b5b82820490509291505056fea2646970667358221220b00a26f6a8395aa15f8540ab46a5776af17f962e7f59ea526dca464a6ed566db64736f6c634300081c0033",
  "devdoc": {
    "kind": "dev",
    "methods": {},
    "version": 1
  },
  "userdoc": {
    "kind": "user",
    "methods": {
      "getChainlinkDataFeedLatestAnswer()": {
        "notice": "Returns the latest answer."
      }
    },
    "version": 1
  },
  "storageLayout": {
    "storage": [
      {
        "astId": 53,
        "contract": "contracts/FundMe.sol:FundMe",
        "label": "funderToAmount",
        "offset": 0,
        "slot": "0",
        "type": "t_mapping(t_address,t_uint256)"
      },
      {
        "astId": 55,
        "contract": "contracts/FundMe.sol:FundMe",
        "label": "owner",
        "offset": 0,
        "slot": "1",
        "type": "t_address"
      },
      {
        "astId": 58,
        "contract": "contracts/FundMe.sol:FundMe",
        "label": "dataFeed",
        "offset": 0,
        "slot": "2",
        "type": "t_contract(AggregatorV3Interface)45"
      },
      {
        "astId": 74,
        "contract": "contracts/FundMe.sol:FundMe",
        "label": "deploymentTimestamp",
        "offset": 0,
        "slot": "3",
        "type": "t_uint256"
      },
      {
        "astId": 76,
        "contract": "contracts/FundMe.sol:FundMe",
        "label": "lockTime",
        "offset": 0,
        "slot": "4",
        "type": "t_uint256"
      },
      {
        "astId": 78,
        "contract": "contracts/FundMe.sol:FundMe",
        "label": "erc20Addr",
        "offset": 0,
        "slot": "5",
        "type": "t_address"
      },
      {
        "astId": 81,
        "contract": "contracts/FundMe.sol:FundMe",
        "label": "getFundSuccess",
        "offset": 20,
        "slot": "5",
        "type": "t_bool"
      }
    ],
    "types": {
      "t_address": {
        "encoding": "inplace",
        "label": "address",
        "numberOfBytes": "20"
      },
      "t_bool": {
        "encoding": "inplace",
        "label": "bool",
        "numberOfBytes": "1"
      },
      "t_contract(AggregatorV3Interface)45": {
        "encoding": "inplace",
        "label": "contract AggregatorV3Interface",
        "numberOfBytes": "20"
      },
      "t_mapping(t_address,t_uint256)": {
        "encoding": "mapping",
        "key": "t_address",
        "label": "mapping(address => uint256)",
        "numberOfBytes": "32",
        "value": "t_uint256"
      },
      "t_uint256": {
        "encoding": "inplace",
        "label": "uint256",
        "numberOfBytes": "32"
      }
    }
  }
}